{
  "_format": "hh-sol-artifact-1",
  "contractName": "Calculator",
  "sourceName": "contracts/Calculator.sol",
  "abi": [
    {
      "inputs": [
        {
          "internalType": "address",
          "name": "owner_",
          "type": "address"
        }
      ],
      "stateMutability": "nonpayable",
      "type": "constructor"
    },
    {
      "inputs": [
        {
          "internalType": "uint256",
          "name": "nb1",
          "type": "uint256"
        },
        {
          "internalType": "uint256",
          "name": "nb2",
          "type": "uint256"
        }
      ],
      "name": "add",
      "outputs": [
        {
          "internalType": "uint256",
          "name": "",
          "type": "uint256"
        }
      ],
      "stateMutability": "pure",
      "type": "function"
    },
    {
      "inputs": [
        {
          "internalType": "uint256",
          "name": "nb1",
          "type": "uint256"
        },
        {
          "internalType": "uint256",
          "name": "nb2",
          "type": "uint256"
        }
      ],
      "name": "div",
      "outputs": [
        {
          "internalType": "uint256",
          "name": "",
          "type": "uint256"
        }
      ],
      "stateMutability": "pure",
      "type": "function"
    },
    {
      "inputs": [
        {
          "internalType": "uint256",
          "name": "nb1",
          "type": "uint256"
        },
        {
          "internalType": "uint256",
          "name": "nb2",
          "type": "uint256"
        }
      ],
      "name": "mod",
      "outputs": [
        {
          "internalType": "uint256",
          "name": "",
          "type": "uint256"
        }
      ],
      "stateMutability": "pure",
      "type": "function"
    },
    {
      "inputs": [
        {
          "internalType": "uint256",
          "name": "nb1",
          "type": "uint256"
        },
        {
          "internalType": "uint256",
          "name": "nb2",
          "type": "uint256"
        }
      ],
      "name": "mul",
      "outputs": [
        {
          "internalType": "uint256",
          "name": "",
          "type": "uint256"
        }
      ],
      "stateMutability": "pure",
      "type": "function"
    },
    {
      "inputs": [],
      "name": "owner",
      "outputs": [
        {
          "internalType": "address",
          "name": "",
          "type": "address"
        }
      ],
      "stateMutability": "view",
      "type": "function"
    },
    {
      "inputs": [
        {
          "internalType": "uint256",
          "name": "nb1",
          "type": "uint256"
        },
        {
          "internalType": "uint256",
          "name": "nb2",
          "type": "uint256"
        }
      ],
      "name": "sum",
      "outputs": [
        {
          "internalType": "uint256",
          "name": "",
          "type": "uint256"
        }
      ],
      "stateMutability": "pure",
      "type": "function"
    }
  ],
  "bytecode": "0x608060405234801561001057600080fd5b506040516105ee3803806105ee8339818101604052810190610032919061008f565b80806000806101000a81548173ffffffffffffffffffffffffffffffffffffffff021916908373ffffffffffffffffffffffffffffffffffffffff1602179055505050610101565b600081519050610089816100ea565b92915050565b6000602082840312156100a157600080fd5b60006100af8482850161007a565b91505092915050565b60006100c3826100ca565b9050919050565b600073ffffffffffffffffffffffffffffffffffffffff82169050919050565b6100f3816100b8565b81146100fe57600080fd5b50565b6104de806101106000396000f3fe608060405234801561001057600080fd5b50600436106100625760003560e01c8063771602f7146100675780638da5cb5b14610097578063a391c15b146100b5578063c8a4ac9c146100e5578063cad0899b14610115578063f43f523a14610145575b600080fd5b610081600480360381019061007c9190610221565b610175565b60405161008e9190610296565b60405180910390f35b61009f61018b565b6040516100ac919061027b565b60405180910390f35b6100cf60048036038101906100ca9190610221565b6101b4565b6040516100dc9190610296565b60405180910390f35b6100ff60048036038101906100fa9190610221565b6101ca565b60405161010c9190610296565b60405180910390f35b61012f600480360381019061012a9190610221565b6101e0565b60405161013c9190610296565b60405180910390f35b61015f600480360381019061015a9190610221565b6101f6565b60405161016c9190610296565b60405180910390f35b6000818361018391906102b1565b905092915050565b60008060009054906101000a900473ffffffffffffffffffffffffffffffffffffffff16905090565b600081836101c29190610307565b905092915050565b600081836101d89190610338565b905092915050565b600081836101ee9190610392565b905092915050565b600081836102049190610402565b905092915050565b60008135905061021b81610491565b92915050565b6000806040838503121561023457600080fd5b60006102428582860161020c565b92505060206102538582860161020c565b9150509250929050565b610266816103c6565b82525050565b610275816103f8565b82525050565b6000602082019050610290600083018461025d565b92915050565b60006020820190506102ab600083018461026c565b92915050565b60006102bc826103f8565b91506102c7836103f8565b9250827fffffffffffffffffffffffffffffffffffffffffffffffffffffffffffffffff038211156102fc576102fb610433565b5b828201905092915050565b6000610312826103f8565b915061031d836103f8565b92508261032d5761032c610462565b5b828204905092915050565b6000610343826103f8565b915061034e836103f8565b9250817fffffffffffffffffffffffffffffffffffffffffffffffffffffffffffffffff048311821515161561038757610386610433565b5b828202905092915050565b600061039d826103f8565b91506103a8836103f8565b9250828210156103bb576103ba610433565b5b828203905092915050565b60006103d1826103d8565b9050919050565b600073ffffffffffffffffffffffffffffffffffffffff82169050919050565b6000819050919050565b600061040d826103f8565b9150610418836103f8565b92508261042857610427610462565b5b828206905092915050565b7f4e487b7100000000000000000000000000000000000000000000000000000000600052601160045260246000fd5b7f4e487b7100000000000000000000000000000000000000000000000000000000600052601260045260246000fd5b61049a816103f8565b81146104a557600080fd5b5056fea264697066735822122094856b03917edbb57fae2721d44f32452b64a2fb2832714dc83656622b0bec0764736f6c63430008040033",
  "linkReferences": {},
  "deployedLinkReferences": {}
}